:020000020000FC
:1000000012C06162636441424344000031323334C0
:100010003536373839003734282A265123245E7D77
:100020007B3A3F3C3E00CFEFD1E2CDBFDEBFE2E006
:10003000F0E0C4E6D0E00E943400402FECE0F0E0B5
:10004000C0E5D0E00E943400502FE6E1F0E0C4E6C5
:10005000D0E00E943400602FE6E1F0E0C0E5D0E09F
:100060000E943400702FFFCFAF93BF931F93ADB7A3
:10007000BEB7ADBFBEBF1591103051F0DF01FE011C
:10008000ED010995DF01FE01ED01003009F0F3CF2C
:10009000ADB7BEB7ADBFBEBF1F91BF91AF910895C1
:1000A000AF93BF93ADB7BEB7ADBFBEBF103324F0A3
:1000B0001A3310F401E001C00027ADB7BEB7ADBFE1
:1000C000BEBFBF91AF910895AF93BF93ADB7BEB719
:1000D000ADBFBEBF113444F01B3524F0113624F0FF
:1000E0001B3710F401E001C00027ADB7BEB7ADBFAC
:0800F000BEBFBF91AF9108955E
:00000001FF
