:020000020000FC
:100000000C944F004F935F935AE089E02218042E1E
:10001000001C8A9541F0221C251A18F4250E88949C
:10002000F7CF0894F5CF5F914F9108958F939F93E9
:100030009FE08CE90197F1F79F918F910895F6DF8A
:10004000F5DFF4DFF3DFF2DF08955F935AE55A95A9
:10005000F6DF503009F0FBCF5F91089501BBE6DF7A
:10006000169AE4DF1698E2DF089501BB179ADEDFE7
:10007000169ADCDF1698DADF179808950F93002799
:1000800000BB01BB159AD2DF169AD0DF0FB11698CC
:1000900007FDF9CF15980FEF00BB0F9108950FEFF3
:1000A0000DBF01E20EBF0FEF00BB01B9002701BB7E
:1000B00002B908E3D3DFE2DFC2DF08E3CFDFDEDF30
:1000C000B5DF08E3CBDFDADF08E3C8DFD7DF08E01E
:1000D000C5DFD4DF01E0C2DFD1DF06E0BFDFCEDF66
:1000E0000EE0BCDFCBDF6627772740E0405D042FC2
:1000F000BCDFC4DF00ECB2DFC1DF40EF40930A0198
:100100003FEE11271430E1F330930B014FEF4A9586
:10011000F1F7409109014F7059F021E000270430B8
:1001200039F0542F522341F00395220F0C948F0085
:10013000330F13950C9482001330C1F0033061F03B
:10014000402F440F400F410F4F5F5AE0759F702DB5
:10015000740F405D0C94DC00103021F0113021F060
:100160000C9480000C944F0040E0EFCF003011F071
:10017000013089F001E072DF81DF00EC6FDF7EDFAC
:1001800050E3052F72DF7ADF00EC68DF77DF670F5F
:1001900052D00C94800001E061DF70DF00EC5EDF84
:1001A0006DDF50E3052F61DF69DF00EC57DF66DFAD
:1001B000671B41D00C94800048B9042F56DF5EDFE6
:1001C00044DF0C9480004F935F935F9201E046DF21
:1001D00055DF6436B8F46A3040F40E940200522DB4
:1001E000505D052F42DF4ADF22C00E940200502DE1
:1001F000505D052F3ADF42DF522D505D052F35DF70
:100200003DDF15C00E940200522C402D0E940200CA
:10021000502D505D052F29DF31DF522D505D052F08
:1002200024DF2CDF552D505D052F1FDF27DF5F906A
:100230005F914F9108954F93462F0E94E3007727D7
:1002400000EC0CDF1BDF40E3042F0FDF17DF00ECB7
:0802500005DF14DF4F91089552
:00000001FF
